{
  "contractName": "PesabitsContract",
  "abi": [
    {
      "inputs": [],
      "stateMutability": "nonpayable",
      "type": "constructor"
    },
    {
      "inputs": [
        {
          "internalType": "address",
          "name": "owner",
          "type": "address"
        }
      ],
      "name": "OwnableInvalidOwner",
      "type": "error"
    },
    {
      "inputs": [
        {
          "internalType": "address",
          "name": "account",
          "type": "address"
        }
      ],
      "name": "OwnableUnauthorizedAccount",
      "type": "error"
    },
    {
      "inputs": [],
      "name": "ReentrancyGuardReentrantCall",
      "type": "error"
    },
    {
      "anonymous": false,
      "inputs": [
        {
          "indexed": true,
          "internalType": "address",
          "name": "previousOwner",
          "type": "address"
        },
        {
          "indexed": true,
          "internalType": "address",
          "name": "newOwner",
          "type": "address"
        }
      ],
      "name": "OwnershipTransferred",
      "type": "event"
    },
    {
      "anonymous": false,
      "inputs": [
        {
          "indexed": false,
          "internalType": "address",
          "name": "recipient",
          "type": "address"
        },
        {
          "indexed": false,
          "internalType": "address",
          "name": "tokenAddress",
          "type": "address"
        },
        {
          "indexed": false,
          "internalType": "uint256",
          "name": "amount",
          "type": "uint256"
        }
      ],
      "name": "UserWithdrewErc20Token",
      "type": "event"
    },
    {
      "anonymous": false,
      "inputs": [
        {
          "indexed": false,
          "internalType": "address",
          "name": "recipient",
          "type": "address"
        },
        {
          "indexed": false,
          "internalType": "uint256",
          "name": "amount",
          "type": "uint256"
        }
      ],
      "name": "UserWithdrewNativeToken",
      "type": "event"
    },
    {
      "inputs": [],
      "name": "owner",
      "outputs": [
        {
          "internalType": "address",
          "name": "",
          "type": "address"
        }
      ],
      "stateMutability": "view",
      "type": "function"
    },
    {
      "inputs": [],
      "name": "renounceOwnership",
      "outputs": [],
      "stateMutability": "nonpayable",
      "type": "function"
    },
    {
      "inputs": [
        {
          "internalType": "address",
          "name": "newOwner",
          "type": "address"
        }
      ],
      "name": "transferOwnership",
      "outputs": [],
      "stateMutability": "nonpayable",
      "type": "function"
    },
    {
      "stateMutability": "payable",
      "type": "receive"
    },
    {
      "inputs": [
        {
          "internalType": "address payable",
          "name": "_recipient",
          "type": "address"
        },
        {
          "internalType": "uint256",
          "name": "_amount",
          "type": "uint256"
        }
      ],
      "name": "user_withdraw_nativeToken",
      "outputs": [],
      "stateMutability": "nonpayable",
      "type": "function"
    },
    {
      "inputs": [
        {
          "internalType": "address payable",
          "name": "_recipient",
          "type": "address"
        },
        {
          "internalType": "uint256",
          "name": "_amount",
          "type": "uint256"
        },
        {
          "internalType": "address",
          "name": "_tokenAddress",
          "type": "address"
        }
      ],
      "name": "user_withdraw_erc20Token",
      "outputs": [],
      "stateMutability": "nonpayable",
      "type": "function"
    }
  ],
  "bytecode": "0x608060405234801561000f575f80fd5b50335f73ffffffffffffffffffffffffffffffffffffffff168173ffffffffffffffffffffffffffffffffffffffff1603610081575f6040517f1e4fbdf7000000000000000000000000000000000000000000000000000000008152600401610078919061019d565b60405180910390fd5b6100908161009d60201b60201c565b50600180819055506101b6565b5f805f9054906101000a900473ffffffffffffffffffffffffffffffffffffffff169050815f806101000a81548173ffffffffffffffffffffffffffffffffffffffff021916908373ffffffffffffffffffffffffffffffffffffffff1602179055508173ffffffffffffffffffffffffffffffffffffffff168173ffffffffffffffffffffffffffffffffffffffff167f8be0079c531659141344cd1fd0a4f28419497f9722a3daafe3b4186f6b6457e060405160405180910390a35050565b5f73ffffffffffffffffffffffffffffffffffffffff82169050919050565b5f6101878261015e565b9050919050565b6101978161017d565b82525050565b5f6020820190506101b05f83018461018e565b92915050565b610b18806101c35f395ff3fe60806040526004361061004d575f3560e01c8063659a80c614610058578063715018a6146100805780638da5cb5b14610096578063cad73e91146100c0578063f2fde38b146100e857610054565b3661005457005b5f80fd5b348015610063575f80fd5b5061007e60048036038101906100799190610713565b610110565b005b34801561008b575f80fd5b506100946102aa565b005b3480156100a1575f80fd5b506100aa6102bd565b6040516100b79190610772565b60405180910390f35b3480156100cb575f80fd5b506100e660048036038101906100e1919061078b565b6102e4565b005b3480156100f3575f80fd5b5061010e600480360381019061010991906107c9565b610425565b005b6101186104a9565b610120610530565b5f819050828173ffffffffffffffffffffffffffffffffffffffff166370a08231306040518263ffffffff1660e01b815260040161015e9190610772565b602060405180830381865afa158015610179573d5f803e3d5ffd5b505050506040513d601f19601f8201168201806040525081019061019d9190610808565b10156101a7575f80fd5b8073ffffffffffffffffffffffffffffffffffffffff1663a9059cbb85856040518363ffffffff1660e01b81526004016101e292919061089d565b6020604051808303815f875af11580156101fe573d5f803e3d5ffd5b505050506040513d601f19601f8201168201806040525081019061022291906108f9565b610261576040517f08c379a00000000000000000000000000000000000000000000000000000000081526004016102589061097e565b60405180910390fd5b7fadea1254e3223f01ddbd61b8d8920cc48befc66213cab3d15da8f7124cb1a8f78483856040516102949392919061099c565b60405180910390a1506102a5610576565b505050565b6102b26104a9565b6102bb5f61057f565b565b5f805f9054906101000a900473ffffffffffffffffffffffffffffffffffffffff16905090565b6102ec6104a9565b6102f4610530565b80471015610337576040517f08c379a000000000000000000000000000000000000000000000000000000000815260040161032e90610a1b565b60405180910390fd5b5f8273ffffffffffffffffffffffffffffffffffffffff168260405161035c90610a66565b5f6040518083038185875af1925050503d805f8114610396576040519150601f19603f3d011682016040523d82523d5f602084013e61039b565b606091505b50509050806103df576040517f08c379a00000000000000000000000000000000000000000000000000000000081526004016103d690610ac4565b60405180910390fd5b7f7907ccda728ee64ae6db3dfaa40087c883c7200f8715fae4bfa372ac96d44dde838360405161041092919061089d565b60405180910390a150610421610576565b5050565b61042d6104a9565b5f73ffffffffffffffffffffffffffffffffffffffff168173ffffffffffffffffffffffffffffffffffffffff160361049d575f6040517f1e4fbdf70000000000000000000000000000000000000000000000000000000081526004016104949190610772565b60405180910390fd5b6104a68161057f565b50565b6104b1610640565b73ffffffffffffffffffffffffffffffffffffffff166104cf6102bd565b73ffffffffffffffffffffffffffffffffffffffff161461052e576104f2610640565b6040517f118cdaa70000000000000000000000000000000000000000000000000000000081526004016105259190610772565b60405180910390fd5b565b60026001540361056c576040517f3ee5aeb500000000000000000000000000000000000000000000000000000000815260040160405180910390fd5b6002600181905550565b60018081905550565b5f805f9054906101000a900473ffffffffffffffffffffffffffffffffffffffff169050815f806101000a81548173ffffffffffffffffffffffffffffffffffffffff021916908373ffffffffffffffffffffffffffffffffffffffff1602179055508173ffffffffffffffffffffffffffffffffffffffff168173ffffffffffffffffffffffffffffffffffffffff167f8be0079c531659141344cd1fd0a4f28419497f9722a3daafe3b4186f6b6457e060405160405180910390a35050565b5f33905090565b5f80fd5b5f73ffffffffffffffffffffffffffffffffffffffff82169050919050565b5f6106748261064b565b9050919050565b6106848161066a565b811461068e575f80fd5b50565b5f8135905061069f8161067b565b92915050565b5f819050919050565b6106b7816106a5565b81146106c1575f80fd5b50565b5f813590506106d2816106ae565b92915050565b5f6106e28261064b565b9050919050565b6106f2816106d8565b81146106fc575f80fd5b50565b5f8135905061070d816106e9565b92915050565b5f805f6060848603121561072a57610729610647565b5b5f61073786828701610691565b9350506020610748868287016106c4565b9250506040610759868287016106ff565b9150509250925092565b61076c816106d8565b82525050565b5f6020820190506107855f830184610763565b92915050565b5f80604083850312156107a1576107a0610647565b5b5f6107ae85828601610691565b92505060206107bf858286016106c4565b9150509250929050565b5f602082840312156107de576107dd610647565b5b5f6107eb848285016106ff565b91505092915050565b5f81519050610802816106ae565b92915050565b5f6020828403121561081d5761081c610647565b5b5f61082a848285016107f4565b91505092915050565b5f819050919050565b5f61085661085161084c8461064b565b610833565b61064b565b9050919050565b5f6108678261083c565b9050919050565b5f6108788261085d565b9050919050565b6108888161086e565b82525050565b610897816106a5565b82525050565b5f6040820190506108b05f83018561087f565b6108bd602083018461088e565b9392505050565b5f8115159050919050565b6108d8816108c4565b81146108e2575f80fd5b50565b5f815190506108f3816108cf565b92915050565b5f6020828403121561090e5761090d610647565b5b5f61091b848285016108e5565b91505092915050565b5f82825260208201905092915050565b7f5472616e73666572206661696c656400000000000000000000000000000000005f82015250565b5f610968600f83610924565b915061097382610934565b602082019050919050565b5f6020820190508181035f8301526109958161095c565b9050919050565b5f6060820190506109af5f83018661087f565b6109bc6020830185610763565b6109c9604083018461088e565b949350505050565b7f496e73756666696369656e742062616c616e636520696e20636f6e74726163745f82015250565b5f610a05602083610924565b9150610a10826109d1565b602082019050919050565b5f6020820190508181035f830152610a32816109f9565b9050919050565b5f81905092915050565b50565b5f610a515f83610a39565b9150610a5c82610a43565b5f82019050919050565b5f610a7082610a46565b9150819050919050565b7f5472616e73666572206661696c65642e000000000000000000000000000000005f82015250565b5f610aae601083610924565b9150610ab982610a7a565b602082019050919050565b5f6020820190508181035f830152610adb81610aa2565b905091905056fea26469706673582212205dad50e1ebc3e64df3da005c9c0319da9cf1d3e946a6fd37dd62e29b97560ac864736f6c63430008150033",
  "immutableReferences": {},
  "source": "// SPDX-License-Identifier: MIT \r\npragma solidity ^0.8.0;\r\n// Import the ownable smart contract \r\nimport \"@openzeppelin/contracts/access/Ownable.sol\";\r\n// Prevent reentrancy attacks\r\nimport \"@openzeppelin/contracts/utils/ReentrancyGuard.sol\";\r\n\r\ninterface IERC20 {\r\n    function transfer(address recipient, uint256 amount) external returns (bool);\r\n    function balanceOf(address account) external view returns (uint256);\r\n}\r\n\r\n/*\r\n* This contract will be holding user assets after the make a deposit to Pesabits\r\n* When a user request a withdrawal. It will be made form this contract\r\n*/\r\ncontract PesabitsContract is Ownable, ReentrancyGuard {\r\n\r\n    constructor() Ownable(msg.sender) {}\r\n\r\n    // Receive and accept deposits from native tokens\r\n    receive() external payable {}\r\n\r\n    // Event fires after a withdrawal has been made from the smart contract\r\n    event UserWithdrewNativeToken(address recipient, uint256 amount);\r\n    event UserWithdrewErc20Token(address recipient, address tokenAddress, uint256 amount);\r\n\r\n    /// @dev BNB is the native token in BSC. The same will apply when this contract is deployed in another chain\r\n    function user_withdraw_nativeToken(address payable _recipient, uint256 _amount) external onlyOwner nonReentrant {\r\n\r\n        // Check that smart contract has enough balance\r\n        require(address(this).balance >= _amount, 'Insufficient balance in contract');\r\n\r\n        // Do the transfer\r\n        (bool success, ) = _recipient.call{value: _amount}(\"\");\r\n        require(success, \"Transfer failed.\");\r\n\r\n        // Emit the transfer event\r\n        emit UserWithdrewNativeToken(_recipient, _amount);\r\n    }\r\n\r\n    /// @dev Whitelist all erc20 token addresses. Some contracts might be dangerous to interact with\r\n    function user_withdraw_erc20Token(address payable _recipient, uint256 _amount, address _tokenAddress) external onlyOwner nonReentrant{\r\n\r\n        // Instantiate the erc20 token\r\n        IERC20 token_to_withdraw = IERC20(_tokenAddress);\r\n        \r\n        // Check if there is enough balance\r\n        require(token_to_withdraw.balanceOf(address(this)) >= _amount);\r\n\r\n        // Call the transfer function\r\n        require(token_to_withdraw.transfer(_recipient, _amount), 'Transfer failed'); \r\n\r\n        // Emit the transfer event\r\n        emit UserWithdrewErc20Token(_recipient, _tokenAddress,  _amount);\r\n        \r\n    }\r\n}",
  "sourcePath": "C:\\xampp\\htdocs\\working\\pesabits-contract\\contracts\\pesabitsContract.sol",
  "compiler": {
    "name": "solc",
    "version": "0.8.21+commit.d9974bed.Emscripten.clang"
  },
  "schemaVersion": "3.4.16",
  "updatedAt": "2024-07-14T09:41:50.021Z",
  "devdoc": {
    "errors": {
      "OwnableInvalidOwner(address)": [
        {
          "details": "The owner is not a valid owner account. (eg. `address(0)`)"
        }
      ],
      "OwnableUnauthorizedAccount(address)": [
        {
          "details": "The caller account is not authorized to perform an operation."
        }
      ],
      "ReentrancyGuardReentrantCall()": [
        {
          "details": "Unauthorized reentrant call."
        }
      ]
    },
    "kind": "dev",
    "methods": {
      "owner()": {
        "details": "Returns the address of the current owner."
      },
      "renounceOwnership()": {
        "details": "Leaves the contract without owner. It will not be possible to call `onlyOwner` functions. Can only be called by the current owner. NOTE: Renouncing ownership will leave the contract without an owner, thereby disabling any functionality that is only available to the owner."
      },
      "transferOwnership(address)": {
        "details": "Transfers ownership of the contract to a new account (`newOwner`). Can only be called by the current owner."
      },
      "user_withdraw_erc20Token(address,uint256,address)": {
        "details": "Whitelist all erc20 token addresses. Some contracts might be dangerous to interact with"
      },
      "user_withdraw_nativeToken(address,uint256)": {
        "details": "BNB is the native token in BSC. The same will apply when this contract is deployed in another chain"
      }
    },
    "version": 1
  },
  "userdoc": {
    "kind": "user",
    "methods": {},
    "version": 1
  }
}